:020000040800F2
:100000000008002089010008E5010008E50100085A
:10001000E5010008E5010008E50100080000000016
:10002000000000000000000000000000E5010008E2
:10003000E501000800000000E5010008E5010008F6
:10004000E5010008E5010008E5010008E5010008F8
:10005000E5010008E5010008E5010008E5010008E8
:10006000E5010008E5010008E5010008E5010008D8
:10007000E5010008E5010008E5010008E5010008C8
:10008000E5010008E5010008E5010008E5010008B8
:10009000E5010008E5010008E5010008E5010008A8
:1000A000E5010008E5010008E5010008E501000898
:1000B000E5010008E5010008E5010008E501000888
:1000C000E5010008E5010008E5010008E501000878
:1000D000E5010008E5010008E5010008E501000868
:1000E000E5010008E5010008E5010008E501000858
:1000F000E5010008E5010008E5010008E501000848
:10010000E5010008E5010008E5010008E501000837
:10011000E5010008E5010008E5010008E501000827
:10012000E5010008E5010008E5010008E501000817
:10013000E5010008E5010008E5010008E501000807
:10014000E5010008E5010008E5010008E5010008F7
:10015000E5010008E5010008E5010008E5010008E7
:10016000E5010008E5010008E5010008E5010008D7
:10017000E5010008E5010008E5010008E5010008C7
:10018000E5010008E501000880B582B000AF104B22
:100190007B60104B3B6007E03B681A1D3A607A6851
:1001A000111D796012681A603B680B4A9342F3D3C1
:1001B0000A480B494FF000028842B8BF40F8042BB0
:1001C000FADB00F035F800BF0837BD4680BD00BF40
:1001D0004806000800000020000000200000002069
:1001E0000000002080B400AFFEE700BF80B582B001
:1001F00000AF0121082000F079F84FF470433B6014
:1002000001233B710023BB7102237B710023FB712F
:100210003B461946054800F0C1F8FF21034800F0AD
:100220004BF900BF0837BD4680BD00BF000C02403F
:1002300080B582B000AF00F05FF9012000F01CF83B
:1002400000BF00F02BF80346002BFAD0FFF7CEFFDB
:100250004FF48041064800F03DF900237B6002E046
:100260007B6801337B607B68024A9342F8D9EFE7F1
:10027000000C02401FA1070080B483B000AF03460A
:10028000FB71054B00221A70034AFB79137000BF03
:100290000C37BD4680BC70470238024080B582B042
:1002A00000AF00233B600023FB710023BB713120B2
:1002B00000F03AF80346BB713B6801333B603B6892
:1002C000B3F5A06F02D0BB79002BF0D0312000F045
:1002D0002BF80346002B02D00123FB7101E0002321
:1002E000FB71FB7918460837BD4680BD80B483B0EA
:1002F00000AF78600B46FB70FB78002B06D00949F5
:10030000084B1A6B7B6813430B6306E00549054BEA
:100310001A6B7B68DB4313400B6300BF0C37BD4691
:1003200080BC70470038024080B487B000AF0346FD
:10033000FB710023FB6000237B610023FB74FB79CE
:100340005B09DBB2FB60FB68012B03D1124B1B681E
:100350007B6109E0FB68022B03D10F4B1B6F7B61B4
:1003600002E00D4B5B6F7B61FB7903F01F03FB60C9
:100370007A69FB6822FA03F303F00103002B02D031
:100380000123FB7401E00023FB74FB7C18461C373F
:10039000BD4680BC704700BF0038024080B487B0C3
:1003A00000AF7860396000237B6100233B6100234C
:1003B000FB6000237B6176E001227B6902FA03F394
:1003C0003B613B681A683B691340FB60FA683B6914
:1003D0009A4265D17B681A687B695B00032101FA48
:1003E00003F3DB431A407B681A607B681A683B683A
:1003F0001B7919467B695B0001FA03F31A437B689A
:100400001A603B681B79012B03D03B681B79022BD8
:100410002ED17B689A687B695B00032101FA03F3A4
:10042000DB431A407B689A607B689A683B685B791B
:1004300019467B695B0001FA03F31A437B689A60F3
:100440007B685A687B699BB2194601238B40DB436A
:100450001A407B685A607B685B683A6892791146FB
:100460007A6992B201FA02F292B21A437B685A6038
:100470007B68DA687B699BB25B00032101FA03F3B6
:10048000DB431A407B68DA607B68DA683B68DB79BB
:1004900019467B695B0001FA03F31A437B68DA6053
:1004A0007B6901337B617B690F2B85D900BF1C37CA
:1004B000BD4680BC704700BF80B483B000AF786099
:1004C0000B467B807A887B685A6100BF0C37BD463B
:1004D00080BC704780B483B000AF78600B467B80EF
:1004E0007B685A697B885A407B685A6100BF0C3729
:1004F000BD4680BC704700BF80B500AF124A124BAA
:100500001B6843F0010313600F4B00229A600E4AF0
:100510000D4B1B6823F0847323F4803313600A4B64
:100520000A4A5A60084A084B1B6823F48023136068
:10053000054B0022DA6000F00DF8054B4FF0006229
:100540009A6000BF80BD00BF003802401030002418
:1005500000ED00E080B483B000AF00237B60002397
:100560003B60354A344B1B6843F480331360324B95
:100570001B6803F400333B607B6801337B603B689E
:10058000002B03D17B68B3F5A06FF0D12A4B1B6819
:1005900003F40033002B02D001233B6001E0002371
:1005A0003B603B68012B42D1234A234B1B6C43F039
:1005B00080531364214A214B1B6843F4804313602A
:1005C0001D4A1D4B9B6893601B4A1B4B9B6843F461
:1005D00000439360184A184B9B6843F4A053936000
:1005E000154B174A5A60144A134B1B6843F080732B
:1005F000136000BF104B1B6803F00073002BF9D091
:10060000104B40F205621A600B4A0B4B9B6823F0BB
:1006100003039360084A084B9B6843F0020393600E
:1006200000BF054B9B6803F00C03082BF9D100BFFA
:100630000C37BD4680BC7047003802400070004057
:0806400019544007003C024080
:0400000508000000EF
:00000001FF
